:100000000C943A000C9457000C9457000C949100F7
:100010000C9423030C9457000C9457000C94570035
:100020000C9457000C9457000C9457000C94AB039D
:100030000C9457000C9457000C9457000C945700E4
:100040000C9457000C9457000C94D5030C94570053
:100050000C9457000C9457000C9457000C945700C4
:100060000C9457000C9457006364696E6F7073753D
:1000700078585B0011241FBECFEFD8E0DEBFCDBFA4
:1000800011E0A0E0B1E0ECEEF5E102C005900D92C8
:10009000A432B107D9F711E0A4E2B1E001C01D928A
:1000A000A733B107E1F70E94B7000C94F40A0C944F
:1000B000000020E030E040ED57E0429ACA0101978D
:1000C000F1F74298CA010197F1F72F5F3F4F81E0A6
:1000D000243F380791F7089510922B0110922501C3
:1000E000109224018EE18093300110922F01109222
:1000F00031011092290110922D0187B1866087B9D4
:10010000419885B1886185B9529A5A98E8E6F0E03D
:10011000808181608083EBE6F0E08081886180836C
:1001200008951F920F920FB60F9211248F931C996E
:100130000DC080912B01882349F4419A109225012A
:100140001092240181E080932B010BC01B9909C000
:1001500080912B01813029F4419810922B018093DA
:100160002F018F910F900FBE0F901F9018952F9217
:100170003F924F925F926F927F928F929F92AF9237
:10018000BF92CF92DF92EF92FF920F931F93DF9374
:10019000CF93CDB7DEB765970FB6F894DEBF0FBE2D
:1001A000CDBF78940E946C000E94AF0280E89EE36D
:1001B0000E9499030E94D8020E94C60381E00E9417
:1001C000930284E690E00E949109982F8150833633
:1001D00010F490933001209130018DB79EB70897AD
:1001E0000FB6F8949EBF0FBE8DBFEDB7FEB7319628
:1001F0008E01045F1F4FADB7BEB712961C930E93CE
:1002000011978AE090E09383828380E091E0958368
:100210008483268317820E94D4042DB73EB7285FBB
:100220003F4F0FB6F8943EBF0FBE2DBF81E060E098
:100230000E94A302C8010E94800263E0662E712C16
:100240006C0E7D1E56E0C52ED12CCC0EDD1E46E078
:10025000842E912C32E1A32E31E0B32E2AE0E22E3F
:1002600095E0292E312C89E1482E81E0582E80918D
:1002700026018823A9F16091300184E690E00E9474
:10028000990980913001ADB7BEB718970FB6F894B1
:10029000BEBF0FBEADBFEDB7FEB7319612967C92D2
:1002A0006E92119723E030E033832283ABE0B1E01C
:1002B000B583A483868317820E94D4042DB73EB7EA
:1002C000285F3F4F0FB6F8943EBF0FBE2DBF81E0B1
:1002D00067E00E94A302C3010E94800210922601DF
:1002E00080913101882309F46AC000D000D000D089
:1002F000EDB7FEB7319622E331E0ADB7BEB7129647
:100300003C932E9311978FE091E093838283A1E039
:10031000B0E0AC0FBD1FB583A4830E9405052DB7C7
:100320003EB72A5F3F4F0FB6F8943EBF0FBE2DBFBA
:1003300080E066E00E94A30229813A818DB79EB7D2
:100340000A970FB6F8949EBF0FBE8DBFEDB7FEB7EC
:100350003196ADB7BEB71296DC92CE9211979382CA
:100360008282B582A482C9016AE070E00E9484049E
:1003700077836683C9016AE070E00E9484049187F4
:1003800080870E94D4042DB73EB7265F3F4F0FB63B
:10039000F8943EBF0FBE2DBFC6010E94800280911F
:1003A00030018E9DC001112429813A818217930763
:1003B00014F40E94590010922D0110923101809185
:1003C0002F01882309F453CF80E060E00E94A3024C
:1003D000209124013091250140E050E068EE7AE858
:1003E00080E090E00E94970487E22031380710F007
:1003F0002FE037E2C9016AE070E00E947004F82E35
:10040000C9016AE070E00E947004162F072FADB793
:10041000BEB71A970FB6F894BEBF0FBEADBFEDB70B
:10042000FEB731961296DC92CE9211979382828219
:10043000B582A482668377838F2D992787FD909557
:10044000918780870E94D4042DB73EB7265F3F4F27
:100450000FB6F8943EBF0FBE2DBFC6010E948002AA
:100460008091240190912501ADB7BEB718970FB6C2
:10047000F894BEBF0FBEADBFEDB7FEB73196129672
:10048000DC92CE92119733822282558244829783E6
:1004900086830E94D4042DB73EB7285F3F4F0FB626
:1004A000F8943EBF0FBE2DBF81E06CE00E94A30216
:1004B000C6010E948002812F902F6F2D0E941A0486
:1004C00010922F01D4CE9BB19F709BB99BB1807FBE
:1004D000892B8BB9299A85E08A95F1F72998089597
:1004E0001F93182F289A0E946302812F8295807F84
:1004F0000E94630280E49FE10197F1F71F91089544
:100500001F93CF93DF93EC0110E003C00E947002B1
:100510001F5FFE01E10FF11D80818823B9F7DF9194
:10052000CF911F9108951F93182F28980E9463025E
:10053000812F8295807F0E94630280E49FE1019772
:10054000F1F71F910895882321F0813011F480E4A0
:1005500001C080E06058860F0E94930208958AB11E
:10056000806F8AB984B1836084B980E69AEE01977E
:10057000F1F780E30E94630280E29EE40197F1F7C5
:1005800080E30E94630280EE91E00197F1F780E33F
:100590000E94630280E20E94630280E49FE101976F
:1005A000F1F788E20E9493028FE00E94930208957F
:1005B0001092260188B1806388B9809168008260BA
:1005C0008093680080916C00806380936C0086B19A
:1005D00080932A0180912A01807180932E0180915D
:1005E0002A0180728093270180912701882339F4A2
:1005F00080912E01882319F4109228011FC0809148
:100600002701882331F480912E01882311F081E0A5
:1006100013C080912701882331F080912E01882317
:1006200011F482E009C080912E01882339F0809175
:100630002701882319F083E0809328018091280105
:1006400080932C0108951F920F920FB60F921124E0
:100650008F9386B180932A0180912A0180718093C3
:100660002E0180912A0180728093270180912801B8
:10067000882369F480912E01882311F081E032C033
:1006800080912701882309F447C082E03AC0809115
:100690002801813069F480912E01882319F4109289
:1006A0002C0131C0809127018823B1F183E01AC069
:1006B00080912801823069F480912E01882311F005
:1006C00083E01FC080912701882331F510922C010F
:1006D0000BC0809128018330F9F480912E0188238A
:1006E00059F482E080932C01809130018336A0F48C
:1006F000809130018F5F0EC080912701882361F4C3
:1007000081E080932C0180913001823028F080912B
:10071000300181508093300180912C018093280119
:1007200081E0809326018F910F900FBE0F901F9054
:100730001895A1E8B0E02C9128602C93EFE6F0E04A
:1007400020812260208390938900809388008C917F
:1007500081608C9308951F920F920FB60F9211240F
:100760008F939F9380912B01813049F480912401D4
:1007700090912501019690932501809324019F91EA
:100780008F910F900FBE0F901F90189587E690E005
:100790009093C5008093C400E1ECF0E0808188690B
:1007A000808386E08093C20008951F920F920FB657
:1007B0000F9211248F939F93EF93FF939091C60014
:1007C000903431F481E08093290110922D0129C0E9
:1007D00080912901813029F5892F80538A3080F456
:1007E00080912D01843060F4E0912D01F0E0EE5C09
:1007F000FE4F908380912D018F5F80932D0111C05A
:10080000943269F480912D01882349F0E0912D0103
:10081000F0E0EE5CFE4F108281E080933101109297
:100820002901FF91EF919F918F910F900FBE0F9033
:100830001F9018950F931F93DF93CF93CDB7DEB71B
:1008400027970FB6F894DEBF0FBECDBF2DB73EB7CA
:100850002A5030400FB6F8943EBF0FBE2DBFEDB703
:10086000FEB731968E010F5F1F4FADB7BEB7129620
:100870001C930E93119727E030E0338322832DE100
:1008800031E03583248397838683772767FD7095CE
:10089000718760870E94D40490E02DB73EB7265F31
:1008A0003F4F0FB6F8943EBF0FBE2DBF980107C053
:1008B0008091C00085FFFCCFE093C6009F5FF901E7
:1008C000E90FF11DE081EE2399F727960FB6F89412
:1008D000DEBF0FBECDBFCF91DF911F910F91089565
:1008E000AA1BBB1B51E107C0AA1FBB1FA617B70756
:1008F00010F0A61BB70B881F991F5A95A9F7809572
:100900009095BC01CD01089597FB092E07260AD0CA
:1009100077FD04D0E5DF06D000201AF470956195CC
:100920007F4F0895F6F7909581959F4F089597FB17
:10093000092E05260ED057FD04D014D00AD0001C75
:1009400038F450954095309521953F4F4F4F5F4F6C
:100950000895F6F790958095709561957F4F8F4F2C
:100960009F4F0895A1E21A2EAA1BBB1BFD010DC0CB
:10097000AA1FBB1FEE1FFF1FA217B307E407F5074F
:1009800020F0A21BB30BE40BF50B661F771F881F2B
:10099000991F1A9469F760957095809590959B01C1
:1009A000AC01BD01CF010895AEE0B0E0EAEDF4E0A6
:1009B0000C94CB0A0D891E898F89988D97FF02C0F0
:1009C00080E090E801979E838D831A83098386E0F7
:1009D0008C839E01255E3F4FCE010196698D7A8DF5
:1009E000A9010E941F054D815E8157FD0AC02F811C
:1009F0003885421753070CF49A01020F131FF801B0
:100A000010822E96E4E00C94E70AAEE0B0E0EBE052
:100A1000F5E00C94CD0A85E08C838B899C899A83C0
:100A200089839E01295E3F4FCE0101966D897E89A3
:100A3000A9010E9480082E96E2E00C94E90AABE03E
:100A4000B0E0E5E2F5E00C94BD0A3C012B015A014F
:100A5000FC0117821682838181FD03C06FEF7FEF57
:100A6000C6C19AE0892E1E010894211C311CF30195
:100A70002381F20123FD859123FF81912F0188239A
:100A800009F4B2C1853239F423FD859123FF8191A8
:100A90002F01853229F490E0B3010E94160AE7CFB6
:100AA000982FFF24EE249924FFE1FF15D0F09B320C
:100AB00069F09C3228F4903259F0933291F40EC0D0
:100AC0009D3249F0903369F441E024C052E0F52AA8
:100AD00084E0F82A28C098E0F92A25C0E0E1FE2A3F
:100AE00022C0F7FC29C0892F80538A3070F4F6FEAB
:100AF00005C0989C902C1124980E15C0E89CE02C01
:100B00001124E80EF0E2FF2A0EC09E3229F4F6FC12
:100B10006BC140E4F42A07C09C3619F450E8F52A6A
:100B200002C0983649F4F20123FD959123FF91917B
:100B30002F01992309F0B8CF892F8554833018F0FD
:100B40008052833038F444E050E0A40EB51E5FE3D9
:100B500059830FC0933631F0933779F0933509F00C
:100B600056C020C0F5018081898342E050E0A40E88
:100B7000B51E610101E010E012C0F501C080D18016
:100B8000F6FC03C06FEF7FEF02C0692D70E042E01A
:100B900050E0A40EB51EC6010E94C9098C015FE792
:100BA000F52214C0F501C080D180F6FC03C06FEFC0
:100BB0007FEF02C0692D70E042E050E0A40EB51E48
:100BC000C6010E94BE098C0150E8F52AF3FE07C059
:100BD0001AC080E290E0B3010E94160AEA948E2DBA
:100BE00090E008171907A8F30EC0F601F7FC8591ED
:100BF000F7FE81916F0190E0B3010E94160AE110A7
:100C0000EA94015010400115110579F7EAC09436B5
:100C100011F0993669F5F7FE08C0F50120813181A0
:100C20004281538184E090E00AC0F5018081918186
:100C30009C01442737FD4095542F82E090E0A80E98
:100C4000B91E9FE6F92257FF09C05095409530958F
:100C500021953F4F4F4F5F4FE0E8FE2ACA01B9018F
:100C6000A1012AE030E00E945C0AD82ED21840C0D0
:100C7000953729F41F2D1F7E2AE030E01DC01F2D5F
:100C8000197F9F3661F0903720F4983509F0ACC099
:100C90000FC0903739F0983709F0A6C004C028E09B
:100CA00030E00AC0106114FD146020E130E004C09F
:100CB00014FD166020E132E017FF08C0F5016081E5
:100CC00071818281938144E050E008C0F501808108
:100CD0009181BC0180E090E042E050E0A40EB51E9E
:100CE000A1010E945C0AD82ED2188FE7F82EF122BB
:100CF000F6FE0BC05EEFF522D91438F4F4FE07C0FF
:100D0000F2FC05C08FEEF82202C01D2D01C0192D86
:100D1000F4FE0DC0FE01ED0DF11D8081803319F44C
:100D200099EEF92208C01F5FF2FE05C003C08F2DA7
:100D3000867809F01F5F0F2DF3FC14C0F0FE0FC082
:100D40001E1510F09D2C0BC09D2C9E0C911A1E2D73
:100D500006C080E290E0B3010E94160A1F5F1E15D4
:100D6000C0F304C01E1510F4E11A01C0EE2404FF04
:100D70000FC080E390E0B3010E94160A02FF1DC07D
:100D800001FD03C088E790E00EC088E590E00BC04D
:100D9000802F867891F001FF02C08BE201C080E2D3
:100DA000F7FC8DE290E0B3010E94160A06C080E3D2
:100DB00090E0B3010E94160A9A94D914C0F3DA9411
:100DC000F101ED0DF11D808190E0B3010E94160A42
:100DD000DD20A9F706C080E290E0B3010E94160A68
:100DE000EA94EE20C1F743CEF30166817781CB010F
:100DF0002B96E2E10C94D90AFC0120FD08C023FDEA
:100E000005C022FF02C0738362835183408308952B
:100E1000EF92FF920F931F9344FF02C033E011C083
:100E200046FF02C034E00DC0DB01FC01AA0FBB1F6E
:100E3000EE1FFF1F1094D1F76A0F7B1F8E1F9F1F9D
:100E400031E0660F771F881F991F3150D1F77B0162
:100E50008C01E20EF11C011D111DA8019701B701C3
:100E6000CA011F910F91FF90EF9008950F931F9368
:100E7000CF93DF938C01C8010E94D409EC0197FD48
:100E800008C00E94AB09892BB1F7CE01B8010E94BE
:100E9000420ACE01DF91CF911F910F910895A0E0FA
:100EA000B0E0E5E5F7E00C94C50AEC01C62E5A0166
:100EB000122F0E94D409AC018B3219F08D3251F4FB
:100EC0001068CA9409F46DC0CE010E94D409AC0127
:100ED00097FD67C06DEFD62ED1228D2D807301F561
:100EE0004033F1F4CA9409F447C0CE010E94D409FA
:100EF000AC0197FD41C082E0D82A483711F048354F
:100F000059F480E4D82ACA94B9F1CE010E94D409D8
:100F1000AC0199232CF430C0D6FC02C080E1D82A61
:100F2000EE24FF248701242F2053283088F0D4FC9E
:100F300009C02A3068F0D6FE05C02F7D822F81516E
:100F4000863028F0CA01BE010E94420A12C0275012
:100F5000C801B7014D2D0E9408077B018C0182E07A
:100F6000D82ACA9461F0CE010E94D409AC0197FF3F
:100F7000DACFD1FC04C015C0EE24FF248701D7FED0
:100F800008C010950095F094E094E11CF11C011D3F
:100F9000111DC501B801A7012D2D0E94FC0681E09D
:100FA00001C080E0CDB7DEB7EAE00C94E10AA0E230
:100FB000B0E0EDEDF7E00C94C10A6C01A62E8A01B9
:100FC0007901FE01319680E2DF011D928A95E9F7F1
:100FD00070E030E060E040E050E04F01A1E0B0E0C0
:100FE000F6018381F70183FD259183FF21917F0124
:100FF000222309F47EC02E3519F44115510569F1FB
:10100000872F90E08417950744F42D3551F12D3248
:1010100021F4332329F431E021C0332309F4622F72
:10102000322F832F869586958695F401E80FF11D62
:10103000832F87703D0102C0660C771C8A95E2F70A
:10104000208126292083361711F430E007C0361797
:1010500010F43F5FE6CF3150E4CF71E04F5F5F4F58
:10106000BFCF332319F08E8180628E83772359F0AE
:10107000FE0131969E012F5D3F4F808180958193C7
:10108000E217F307D1F7BB24B3944E010894811CF7
:10109000911CC6010E94D409AC0197FD22C086951F
:1010A00086958695F401E80FF11D808190E09A0104
:1010B0002770307002C0959587952A95E2F780FDDC
:1010C00005C0CA01B6010E94420A0BC001151105F4
:1010D00019F0D8014D938D01AA94BB24AA20C9F61A
:1010E00002C0BB2031F40115110529F0F80110826E
:1010F00002C0EE24FF24C701A096EEE00C94DD0AA6
:10110000A0E0B0E0E6E8F8E00C94C10A5C016B01F5
:101110003A01FC01178216828824EAC0812F90E0F0
:101120000E94AB09892B21F0C5010E943607E0C05F
:10113000153249F4F601F3FC6591F3FE61916F01FC
:10114000653269F415E2C5010E94D40997FDDCC03F
:10115000181709F4CDC0B5010E94420ADAC06A32FC
:1011600019F0162F00E006C0F3FC1591F3FE119163
:101170006F0101E099240FC00260692D70E080E0EA
:1011800090E040E20E940807962EF601F3FC1591CC
:10119000F3FE11916F01212F20532A3068F301FDD6
:1011A00003C099249A9403C0992009F4B2C0183658
:1011B00021F01C3699F4F6010BC0F601F3FC6591A1
:1011C000F3FE6191683619F06F01162F07C00860B1
:1011D0000460F3FC1591F3FE11916F01112309F4E2
:1011E00098C088E690E0612F70E00E94B309892BD7
:1011F00009F48FC0802F00FF03C0EE24FF2407C036
:10120000F301E080F18022E030E0620E731E1E36B2
:1012100051F4F5014681578160E070E0C701202F4D
:101220000E94FC0665C0133691F481FD02C099242A
:101230009394C5010E94D40997FD66C0E114F1049E
:1012400019F0F70181937F019A9499F74FC01B35EC
:1012500059F4C501692DA70196010E94D7076C01B9
:10126000009709F043C03DC0C5010E94360797FDB5
:101270004BC01F3659F1103728F4143629F11936AE
:1012800039F527C0133719F0153711F51DC0C50101
:101290000E94D409EC0197FD11C00E94AB09892B73
:1012A00029F0CE01B5010E94420A08C0E114F10400
:1012B00019F0F701C1937F019A9449F7E114F10401
:1012C000A9F0F701108212C0006203C0006101C0E2
:1012D0000064C501692DA701202F0E944F078823B4
:1012E00029F4F5018381807379F413C000FF83949E
:1012F000F501F380F601F3FC1591F3FE11916F01F6
:10130000112309F00BCF05C0882019F42FEF3FEF10
:1013100002C0282D30E0C901CDB7DEB7EEE00C9455
:10132000DD0AF999FECF92BD81BDF89A992780B563
:101330000895262FF999FECF92BD81BDF89A0197A5
:1013400000B4021639F01FBA20BD0FB6F894FA9A0D
:10135000F99A0FBE089591110DC1803219F089508C
:101360008550D0F70895FC010590061621F0002065
:10137000D9F7C00108953197CF010895FC01059078
:10138000615070400110D8F7809590958E0F9F1F87
:101390000895FC016150704001900110D8F78095CC
:1013A00090958E0F9F1F0895CF93DF93EC014B8193
:1013B00040FF1AC046FF0AC04F7B4B838E819F813E
:1013C00001969F838E838A81282F2BC042FF13C0F2
:1013D000E881F9818081282F332727FD3095211559
:1013E000310529F440624B832FEF3FEF1BC031964C
:1013F000F983E88311C0EA85FB85CE0109959C013C
:1014000097FF0AC09B812F5F3F4F11F080E201C020
:1014100080E1892B8B83E8CF8E819F8101969F830A
:101420008E8330E0C901DF91CF9108950F931F9310
:10143000CF93DF938C01EB018B8181FF1BC082FF77
:101440000DC02E813F818C819D812817390764F45E
:10145000E881F9810193F983E88306C0E885F9857D
:10146000802F0995892B31F48E819F8101969F836E
:101470008E8302C00FEF1FEFC801DF91CF911F9144
:101480000F9108959C01FB01838180FF11C086FDAF
:101490000FC09FEF2F3F390759F0228380648F7D63
:1014A00083838681978101979783868330E002C08A
:1014B0002FEF3FEFC9010895FA01AA27283051F113
:1014C000203181F1E8946F936E7F6E5F7F4F8F4F75
:1014D0009F4FAF4FB1E03ED0B4E03CD0670F781FD4
:1014E000891F9A1FA11D680F791F8A1F911DA11DB9
:1014F0006A0F711D811D911DA11D20D009F46894F2
:101500003F912AE0269F11243019305D3193DEF699
:10151000CF010895462F4770405D4193B3E00FD04F
:10152000C9F7F6CF462F4F70405D4A3318F0495D3A
:1015300031FD4052419302D0A9F7EACFB4E0A6951D
:101540009795879577956795BA95C9F7009761053F
:10155000710508959B01AC010A2E06945795479595
:1015600037952795BA95C9F7620F731F841F951F8A
:10157000A01D08959927882708952F923F924F9292
:101580005F926F927F928F929F92AF92BF92CF9213
:10159000DF92EF92FF920F931F93CF93DF93CDB71C
:1015A000DEB7CA1BDB0B0FB6F894DEBF0FBECDBF94
:1015B00009942A88398848885F846E847D848C8465
:1015C0009B84AA84B984C884DF80EE80FD800C816E
:1015D0001B81AA81B981CE0FD11D0FB6F894DEBF51
:0C15E0000FBECDBFED010895F894FFCFC1
:1015EC004C696D69743A20253275002532750025D9
:1015FC0064002533642E2564002534640040256482
:04160C00256424002D
:00000001FF
